:020000040000FA
:060000004CEF16F01200A7
:0600080064EF08F0120095
:060018006CEF08F012007D
:0610C0004CEF16F01200D7
:0610C80079EF0FF01200A9
:0610D80082EF0FF0120090
:0610EA000200D52C0000FD
:1010F000600000006C000000C02C0000EA0000004E
:0411000015000000D6
:0C110400D9CFE6FFE1CFD9FFE6526A6ABE
:10111000686A9F0E6B6EFB0E696E6D8C6D9C6E6ABD
:101120000F0EE66EE66AE66A710EE66E0F0EE66E6A
:101130000CEC16F0106E050EE15E1050DF6ADF5009
:10114000106E116A040E105C000E115810E2DF5090
:10115000040DF3CFE9FFF4CFEAFF000EE926040EF9
:10116000EA22EE6AEE6AEE6AEE6ADF2AE8D7160E27
:10117000706E68A60CD0030EE66E680EE66E0F0E5B
:10118000E66E5DEC0FF0E552E552E552F2D7DF6A0C
:10119000020EDF5C04E20001DF6BDF2AF9D76D98F5
:1011A0000001040ED76F040ED86FCD6BCC6BE552E7
:1011B000E552E7CFD9FF1200D9CFE6FFE1CFD9FF43
:1011C000E6520001CC5111E105D06D6A696A000157
:1011D000CC6B7BD06D6A696A6DB602D06D86FCD728
:1011E0000001010ECC6F140E6F6ECC0508E16DBAD4
:1011F00006D0686A696A69806988020ECC6F685097
:10120000040B04E06950040B01E096D86DB25DD088
:101210006850010B11E06950010B0EE073DF000113
:10122000040ECC6F0401100E026F040E036F080E43
:10123000016F006B8C0E00136850100B04E06950B6
:10124000100B01E06AD86850400B10E06950400B69
:101250000DE05AEC13F0060EE66E680EE66E0F0E09
:10126000E66E5DEC0FF0E552E552E5526850200B5A
:1012700004E06950200B01E02DD86850020B06E015
:101280006950020B03E05BEC13F06A6A040E000184
:10129000CC5D01E21AD069A618D0DF6A040EDF5CCB
:1012A00014E268A60FD06CCFE5F0030EE66E680E70
:1012B000E66E0F0EE66E5DEC0FF0E552E552E5527C
:1012C0004ED801D002D0DF2AE9D7E552E552E7CF68
:1012D000D9FF120070A015D0CFC0E9FFD0C0EAFF3F
:1012E000EF5080080DE1D7C0E9FFD8C0EAFFEF500A
:1012F000840806E1CFC0E9FFD0C0EAFF8C0EEF6E94
:101300007090060EE66E680EE66E0F0EE66E5DECF1
:101310000FF0E552E552E55212006984040EE66EC4
:10132000680EE66E0F0EE66E5DEC0FF0E552E552CC
:10133000E5526D8258EF13F06D9259EC13F06994F9
:1013400068A40CD0020EE66E680EE66E0F0EE66E16
:101350005DEC0FF0E552E552E552F2D71200FD0EBA
:101360000001E5151FE17E0EE515E8407F0B040D39
:10137000F3CFCFF0F4CFD0F0000ECF27040ED02360
:10138000CFC0D1F0D0C0D2F0CFC0E9FFD0C0EAFFCB
:10139000EF503C0BE842E8420D0802E109D801D0C9
:1013A0001ED805D0FD0EE515040801E134D8120061
:1013B000D7C0E9FFD8C0EAFFEF50800B05E0D7C0E7
:1013C000E9FFD8C0EAFFEF6A0001DB6BDC6BE06B82
:1013D000E16BDF6BFBD85CEC13F072EF0CF0020EEC
:1013E0000001DC5D16E1AFDBCFC0E9FFD0C0EAFF52
:1013F000EF50400B07E1D1C0E9FFD2C0EAFFC80EB1
:10140000EF6E06D0D1C0E9FFD2C0EAFF880EEF6EC2
:1014100001D04DD81200D9CFE6FFE1CFD9FFE65277
:10142000D7C0E9FFD8C0EAFFEF50400B01E0010E42
:10143000DF6E080E0001CC5D0AE112C46EFF6E5033
:10144000000803E2100ECC6F02D0040ECC6FDC0556
:1014500028E1D7C0E9FFD8C0EAFF020EE926000E56
:10146000EA22180EEE6E040EED6EE2DA020E0001B4
:10147000DB5D07E1D7C0E9FFD8C0EAFF840EEF6E5D
:101480000FD0DF5007E1D7C0E9FFD8C0EAFFC80E90
:10149000EF6E06D0D7C0E9FFD8C0EAFF880EEF6E26
:1014A00001D005D8E552E552E7CFD9FF1200D9CFD8
:1014B000E6FFE1CFD9FF030EE126020E0001DC5D5D
:1014C0004AE16D50100B47E0CFC0E9FFD0C0EAFF02
:1014D000EE52EF50106E116A080E101801E1115013
:1014E0003AE1CFC0E9FFD0C0EAFFEF503C0BE84241
:1014F000E8420D0830E1D1C0E9FFD2C0EAFFEF5069
:10150000800B29E1D1C0E9FFD2C0EAFF020EE92633
:10151000000EEA22100EEE6E040EED6EDF6ADF5052
:10152000106E116A080E105C000E115813E2DF50A5
:10153000EA6A180FE96E040EEA22EF50E66EDF50F9
:10154000EA6A100FE96E040EEA22E552E750EF6EE8
:10155000DF2AE5D731D0DC6BD1C0E9FFD2C0EAFF8A
:10156000EE52080EEF6ED1C0E9FFD2C0EAFF020EC4
:10157000E926000EEA22100EEE6E040EED6ED1C0CA
:10158000E9FFD2C0EAFF8C0EEF6ED7C0E9FFD8C0EA
:10159000EAFFEF6A000ED719106ED8C011F0010EE5
:1015A00010C0DBFF020E11C0DBFF010EDBCFE9FF35
:1015B000020EDBCFEAFFEF6A030EE15C02E2E16AB2
:1015C000E552E16EE552E7CFD9FF12000401105158
:1015D000600BE842E842E842E842E842000901E0E4
:1015E0004CD011510C0A48E00B0A43E00C0A35E0DC
:1015F000010A26E00B0A22E0020A20E0030A1CE0AE
:10160000080A10E0010A0CE00F0A08E0030A01E0F2
:1016100033D00001DF8F080ECC6F2FD0B5D82DD07E
:10162000DBDA2BD00001CD0EDD6F000EDE6FDF8127
:10163000010EE06FDF8F21D0FBD81FD01FD81DD047
:1016400014510001DD6FDE6BCE0EDD27000EDE23B0
:10165000DF81010EE06FDF8F10D00001DF8F04010A
:101660001451EA6ACE0FE96E000EEA2212C4EFFFAF
:1016700004D05EEC13F001D000D01200D9CFE6FF09
:10168000E1CFD9FF050EE1260401120510E110514A
:101690001F0B00090CE10001DF8F030E0401115D37
:1016A00004E10001010EE46F02D00001E46B0401CB
:1016B000125160E110511F0B02085CE114510F0B35
:1016C000000958E00001DF8F040EDB6A020EF36EA2
:1016D000040EDBCFF4FFF350F45C4CE2000EDE6E40
:1016E000040EDD6E04011451800B01E0010E126E38
:1016F00014510F0BE8241224040DF3CF10F0F4CF93
:1017000011F0D9CFE9FFDACFEAFF1050EE261150E1
:10171000ED22030E115D07E1DECFE9FFDDCFEAFF29
:10172000840EEF6E24D014510F0B116A700F106EDF
:101730000F0E1122020E10C0DBFF030E11C0DBFFE3
:10174000020EDBCFE9FF030EDBCFEAFFEE90ED5296
:1017500014AF07D0DECFE9FFDDCFEAFF400EEF6E1A
:1017600006D0DECFE9FFDDCFEAFFC80EEF6E040E34
:10177000DB2AACD7050EE15C02E2E16AE552E16EDC
:10178000E552E7CFD9FF1200800E0401105D4FE152
:101790000001C00EDF6F04011351030A2EE0010A9D
:1017A0000EE0030A03E00001DF6B41D000013E0EB2
:1017B000DD6F290EDE6F120EE06FE16B38D0125133
:1017C000F66EF76AD890F636F736370EF6262A0EFA
:1017D000F7220900F5CFDDF00A00F5CFDEF0020EAA
:1017E0000001F76ADD25F66EDE51F7220900F5CF1C
:1017F000E0F00A00F5CFE1F01AD01251F66EF76A68
:10180000D890F636F736390EF6262A0EF72209005A
:10181000F5CFDDF00A00F5CFDEF0DDC0F6FFDEC06B
:10182000F7FF0800F5500001E06FE16B00D01200F7
:10183000D9CFE6FFE1CFD9FF020EE1260401186BF4
:10184000196B10511F0B020A12E0030A0DE0010A86
:1018500001E034D00001DF8F040118810001E405AC
:1018600002E1040118832AD00001DF8F27D0000194
:10187000DF8F000EDE6E040EDD6E04011451800B4E
:1018800001E0010E126E14510F0BE8241224040D16
:10189000F3CF10F0F4CF11F0D9CFE9FFDACFEAFFA0
:1018A0001050EE261150ED22DECFE9FFDDCFEAFF2A
:1018B000EF50040B02E0010E186F00D00001DFAF03
:1018C00007D0180EDD6F040EDE6FDF81020EE06FB1
:1018D000020EE15C02E2E16AE552E16EE552E7CF19
:1018E000D9FF12006D980001DFBF20D0D1C0E9FF01
:1018F000D2C0EAFFEE52080EEF6ED1C0E9FFD2C0AF
:10190000EAFF020EE926000EEA22100EEE6E040E29
:10191000ED6ED1C0E9FFD2C0EAFF8C0EEF6ED7C0EA
:10192000E9FFD8C0EAFF840EEF6E81D0040110AF4A
:1019300056D00001E0510401165D0001E15104019F
:10194000175904E216C4E0F017C4E1F071D80001A1
:10195000010EDC6FD1C0E9FFD2C0EAFFEE52080EE3
:10196000EF6ED1C0E9FFD2C0EAFF020EE926000EF9
:10197000EA22100EEE6E040EED6ED1C0E9FFD2C069
:10198000EAFF800EEF6ECFC0E9FFD0C0EAFFEE5253
:10199000080EEF6ECFC0E9FFD0C0EAFF020EE926C5
:1019A000000EEA22100EEE6E040EED6ECFC0E9FFBF
:1019B000D0C0EAFF800EEF6ED7C0E9FFD8C0EAFFC3
:1019C000020EE926000EEA22180EEE6E040EED6EEF
:1019D000D7C0E9FFD8C0EAFFC80EEF6E28D00001DB
:1019E000020EDC6FD7C0E9FFD8C0EAFFEE52EF6A03
:1019F000D7C0E9FFD8C0EAFFC80EEF6ED1C0E9FF3B
:101A0000D2C0EAFFEE52080EEF6ED1C0E9FFD2C09D
:101A1000EAFF020EE926000EEA22180EEE6E040E10
:101A2000ED6ED1C0E9FFD2C0EAFFC80EEF6E120022
:101A3000D9CFE6FFE1CFD9FF020EE1260001080E63
:101A4000E05D000EE1590EE2E0C0DEFFE1C0DDFF27
:101A5000DB5103E1010EDB6F04D0DB0502E1020E76
:101A6000DB6F03D0080EDE6EDD6AD7C0E9FFD8C099
:101A7000EAFFEF92D7C0E9FFD8C0EAFFEF90D7C0E6
:101A8000E9FFD8C0EAFF010EDB50EF12D7C0E9FF33
:101A9000D8C0EAFFEE52DFCFEFFF000EDB50E05F71
:101AA000010EDB50E15B180EE26F040EE36FDFB155
:101AB00021D0D9CFE9FFDACFEAFFEE50ED1019E0DF
:101AC000DDC0F6FFDEC0F7FFDD2B000EDE230800D1
:101AD000F550E66EE2C0E9FFE3C0EAFFE22B000E3C
:101AE000E323E552E750EF6EDF06010E01E2DB066D
:101AF000E0D71FD0D9CFE9FFDACFEAFFEE50ED10E3
:101B000018E0DDC0E9FFDEC0EAFFDD2B000EDE23BA
:101B1000EF50E66EE2C0E9FFE3C0EAFFE22B000E01
:101B2000E323E552E750EF6EDF06010E01E2DB062C
:101B3000E1D7020EE15C02E2E16AE552E16EE552B4
:101B4000E7CFD9FF1200D9CFE6FFE1CFD9FF020ED0
:101B5000E126D1C0E9FFD2C0EAFFEF50030BE76EE8
:101B6000010EE7CFDBFFD1C0E9FFD2C0EAFFEE52A2
:101B7000EFCFDFFFDE500001E027DD50E123180E3C
:101B8000DD6F040EDE6FD9CFE9FFDACFEAFFEE504A
:101B9000ED1018E0DDC0E9FFDEC0EAFFDD2B000E2E
:101BA000DE23EF50E66EE2C0E9FFE3C0EAFFE22B7E
:101BB000000EE323E552E750EF6EDF06010E01E26F
:101BC000DB06E1D7020EE15C02E2E16AE552E16E7A
:101BD000E552E7CFD9FF12000001DF8F0F0EE66E4E
:101BE000E66AE66A710EE66E0F0EE66E0CEC16F013
:101BF000106E050EE15E1050010EE66EE66AE66AB2
:101C0000CE0EE66E000EE66E0CEC16F0106E050EB3
:101C1000E15E105012C4CDF00401125104E1000144
:101C2000100ECC6F05D00001200ECC6F5FEC13F0CE
:101C30001200D9CFE6FFE1CFD9FF020EE126000E58
:101C4000DE6E040EDD6EFD0EDB50040DF3CF12F0E0
:101C5000FE0EDB50080DF3501224106E116A020EB6
:101C60000F0B05E0D89011321032E806FBE1D89056
:101C700010361136D89010361136D9CFE9FFDACFA9
:101C8000EAFF1050EE261150ED22DECFE9FFDDCF46
:101C9000EAFFEF9EFD0EDB500FE1FE0EEA6ADB3439
:101CA000FE0BEA36E96ED30EE926000EEA22DECFFD
:101CB000EEFFDDCFEDFF0ED0FE0EEA6ADB34FE0B49
:101CC000EA36E96ED70EE926000EEA22DECFEEFFF5
:101CD000DDCFEDFFDECFE9FFDDCFEAFFEF8C020EB7
:101CE000E15C02E2E16AE552E16EE552E7CFD9FF3D
:101CF0001200D9CFE6FFE1CFD9FF020EE126FE0E9A
:101D0000DB50116A700F106E0F0E112210C0DEFF33
:101D100011C0DDFFFD0EDB50E66EDECFE9FFDDCF4B
:101D2000EAFFE552E750EE6EED6AFD0EDBA407D048
:101D3000E66AFE0EDBCFE6FF7CDFE552E552FD0EE4
:101D4000DBA208D0010EE66EFE0EDBCFE6FF71DFF0
:101D5000E552E552020EE15C02E2E16AE552E16E13
:101D6000E552E7CFD9FF1200D9CFE6FFE1CFD9FF87
:101D7000020EE126FD0EDBCFE6FFFE0EDB50E8246F
:101D8000E552E724040DF3CF10F0F4CF11F0000E6C
:101D90001026040E112210C0DEFF11C0DDFF840EDC
:101DA000106EDECFE9FFDDCFEAFF1050EF12020E1A
:101DB000E15C02E2E16AE552E16EE552E7CFD9FF6C
:101DC0001200D9CFE6FFE1CFD9FF020EE126FD0ECA
:101DD000DB500FE0FE0EEA6ADB34FE0BEA36E96EFA
:101DE000D70EE926000EEA22EECFDEFFEDCFDDFFB3
:101DF0000ED0FE0EEA6ADB34FE0BEA36E96ED30E35
:101E0000E926000EEA22EECFDEFFEDCFDDFFDECFCA
:101E1000E9FFDDCFEAFFEF7CDECFE9FFDDCFEAFFB0
:101E2000020EE926000EEA22FB0EDBCFEEFFFC0ECF
:101E3000DBCFEDFFDECFE9FFDDCFEAFFEE52FA0E9A
:101E4000DBCFEFFF400E106EDECFE9FFDDCFEAFF04
:101E50001050EF16880E106EDECFE9FFDDCFEAFFDF
:101E60001050EF12FD0EDB500BE0FE0EEA6ADB3481
:101E7000FE0BEA36E96ED70EE926000EEA220AD0FA
:101E8000FE0EEA6ADB34FE0BEA36E96ED30EE92673
:101E9000000EEA22DECF10F0DDCF11F010C0F3FF0C
:101EA00011C0F4FF020EE15C03E200D0E16AE552EA
:101EB000E16EE552E7CFD9FF1200D9CFE6FFE1CFBF
:101EC000D9FF010EF36EFC0EDB5004E0D890F33620
:101ED000E806FCE1F350E81C106EFD0EDBCFE9FFD5
:101EE000FE0EDBCFEAFF1050EF16E552E7CFD9FF29
:021EF0001200DE
:0E1EF200DACFE4FFE2CFDAFFE652E552E5CFA9
:101F0000DAFF110012006BD8DCEC08F0F250040B81
:101F10001CE0140E0001F0AF02D0D89003D0EF5DAA
:101F2000000EF05912E2F85110E12CDB0001EF2B0A
:101F3000000EF023140EF0AF02D0D89003D0EF5D66
:101F4000000EF05902E3010EF86F0001F85101E0B4
:101F5000C5D8DAD71200D9CFE6FFE1CFD9FF040EFA
:101F6000E126020EDB6A030EDB6A020EDBCF10F005
:101F7000030EDBCF11F0FD0EDBCF12F0FE0EDBCF38
:101F800013F011501318E8AE02D0133404D01250DD
:101F9000105C1350115819E2DE6ADD6ADECF10F0D2
:101FA000DDCF11F0D890115004E6F40E105C010E54
:101FB000115805E2DF2A010E01E3DB2AEFD7020EFA
:101FC000DB2A030E01E3DB2AD0D7040EE15C02E238
:101FD000E16AE552E16EE552E7CFD9FF12000F0E3C
:101FE000C11282EC08F0F5EF0FF0936A380E9416E8
:101FF000C30E92168016816A380E821601010B6B91
:102000000BC10AF10BC109F10BC108F10BC107F1BA
:102010000BC106F10BC105F10BC104F10BC103F1BA
:10202000010EE66EE66AFC0EE66E000EE66E0A0E25
:10203000E66EFBDA106E050EE15E1050010EE66EE4
:10204000E66AFA0EE66E000EE66E0B0EE66EEDDA4E
:10205000106E050EE15E1050010EE66EE66AFB0E94
:10206000E66E000EE66E0C0EE66EDFDA106E050E02
:10207000E15E1050010EE66EE66AFD0EE66E000EA1
:10208000E66E0D0EE66ED1DA106E050EE15E1050B2
:10209000FDC0E6FFFEC0E6FF000EE66E020EE66E35
:1020A0000E0EE66EC2DA106E050EE15E10500101F2
:1020B000010E016F0001FC5102E1010EF76F0101F9
:1020C0000E6BD59A060ED516D596D59C0B0ED76EEF
:1020D000D00ED66ED58E0C6B0D6B1200200E00014B
:1020E000CC5D03E36D50020B01E03AD0F2A426D0A0
:1020F0000001F12B000EF2233C0EF2AF02D0D8907B
:1021000003D0F15D000EF25918E3F16BF26BF32B83
:10211000000EF423FC51106E116A1050F31902E105
:102120001150F4190AE10101010E016F0001F66B73
:10213000F56BF36BF46BF16BF26B24DA0001F75182
:102140000BE0D59E0101010E016F0001F65104E084
:10215000F55102E0F66BF56B0101015101E001D888
:1021600012000001FA51020A0DE0030A07E0010A19
:1021700001E00FD0010EF66FCFD80BD0010EF56F36
:1021800052D807D001010E0502E14DD801D0C4D8C4
:1021900000D08BD9020E0001FA5D07E101010E05A6
:1021A00002E10E6B02D0010E0E6F0001F6513AE013
:1021B000F55138E00101066B06C105F106C104F1D5
:1021C0000E6B4D0E036F0C510D1102E1000E08D085
:1021D0000CC1E9FF0DC1EAFFEF50800B01E0010ED9
:1021E000000901E0F0D761D90101010E0E6F4B0E1D
:1021F000036F0C510D1102E1000E08D00CC1E9FF74
:102200000DC1EAFFEF50800B01E0010E000901E073
:10221000F0D74BD90001ED6BEE6BEB6BEC6B010172
:10222000016B066B1200D9CFE6FFE1CFD9FF030E99
:10223000E126020EDB6A01014B0E036F046B056B96
:102240000001EC51FE19E8AE02D0FE3504D0FD517C
:10225000EB5DFE51EC5940E201010C510D1102E120
:10226000000E08D00CC1E9FF0DC1EAFFEF50800B52
:1022700001E0010E00092FE1000E0001EB25E96EDF
:10228000020EEC21EA6EEFCFDFFFD950020FE66EAF
:10229000000EDA20E66ED950010FE66E000EDA204D
:1022A000E66EDFCFE6FF76EC13F0106E050EE15E12
:1022B000105000090DE0020EDB0404E10101020EE2
:1022C000046F02D00101046B010EDBCF06F103D0D5
:1022D00001011D0E066F13D001010B6B0BC10AF13A
:1022E0000BC109F10BC108F10BC107F10BC106F1DC
:1022F0000BC105F10BC104F10001010EF66F0101E4
:10230000010E0E6F030EE15C02E2E16AE552E16E3E
:10231000E552E7CFD9FF120001014D0E036F046BA8
:102320000001F55101E0B1D0FB51080A01E192D062
:102330000F0A64E0030A5DE0020A56E0050A4FE076
:10234000060A48E0070A40E0030A38E0010A01E013
:102350009BD0140E0101025D1AE10001EA2B070E69
:10236000EA15F76AB40FF66E2C0EF7220800F5CFC7
:1023700005F1020EEA25070BF76AB40FF66E2C0E74
:10238000F7220800F5CF06F10101026B16D0070E07
:102390000001EA15F76AB40FF66E2C0EF72208005A
:1023A000F5CF05F1020EEA25070BF76AB40FF66EBA
:1023B0002C0EF7220800F5CF06F166D00101FB0EC6
:1023C000056F050E066F60D00101050E056FFB0E4F
:1023D000066F5AD00101FB0E056F066B55D0010147
:1023E000056BFB0E066F50D00101050E056F066BE5
:1023F0004BD00101056B050E066F46D0EDC010F005
:10240000EEC011F00A0E0D6E0E6A10C008F011C079
:1024100009F0E6EC15F004C010F005C011F0105002
:10242000111017E1070E0001EA15F76AB40FF66EF6
:102430002C0EF7220800F5CF05F1020EEA25070B56
:10244000F76AB40FF66E2C0EF7220800F5CF06F1EE
:10245000EA2B1AD0010102510A0804E30001ED51F0
:10246000EE1111E1010E0001EA15F76ABC0FF66EDC
:102470002C0EF7220800F5CF05F10101066B0001D3
:10248000EA2B0101026B00D003D00101056B066B42
:102490000001EE3504E2ED51F008000EEE5502E2C7
:1024A000010EF56F01010E6B120001010C510D11AF
:1024B00002E1000E08D00CC1E9FF0DC1EAFFEF50A8
:1024C000800B01E0010E000956E103C123F404C1B1
:1024D00024F405C125F406C126F407C127F408C178
:1024E00028F409C129F40AC12AF40BC12BF40E51B6
:1024F000010A1DE0010A01E03DD00001ED2B000EB4
:10250000EE230101022B040EE66E230EE66E040E8E
:10251000E66E010EE66EE66EE1EC0EF0106E050E54
:10252000E15E1050F3CF0CF1F4CF0DF123D0000198
:10253000F9510401265D04E1266B0001F96B06D018
:1025400026C4F9F00001EB2B000EEC23090EE66E19
:10255000230EE66E040EE66E010EE66EE66EE1EC0C
:102560000EF0106E050EE15E1050F3CF0CF1F4CFBB
:102570000DF100D006D0050EE66EE66AECDCE55201
:10258000E5521200F294D59E0B0ED76ED00ED66E89
:10259000D58E1200D9CFE6FFE1CFD9FF020EE1269A
:1025A000DE6ADD6AFE0EDB50A96EA69EA69CA6849E
:1025B000DE6ADD6ADECF10F0DDCF11F0FA0EDBCF80
:1025C00012F0FB0EDBCF13F011501318E8AE02D05F
:1025D000133404D01250105C135011581BE2FC0E3F
:1025E000DBCFE9FFFD0EDBCFEAFFEF50A86E550E03
:1025F000A76EAA0EA76EA682A6B2FED7FC0EDB2A95
:10260000FD0E01E3DB2AA928A96EDF2A010E01E3F2
:10261000DB2AD0D7A694020EE15C02E2E16AE55221
:10262000E16EE552E7CFD9FF1200D9CFE6FFE1CF47
:10263000D9FF020EE126DE6ADD6AFE0EDB50A96ECE
:10264000A69EA69CDE6ADD6ADECF10F0DDCF11F01B
:10265000FA0EDBCF12F0FB0EDBCF13F01150131884
:10266000E8AE02D0133404D01250105C135011584D
:1026700015E2A680FC0EDBCFE9FFFD0EDBCFEAFF03
:10268000A8CFEFFFFC0EDB2AFD0E01E3DB2AA92811
:10269000A96EDF2A010E01E3DB2AD6D7020EE15C28
:1026A00002E2E16AE552E16EE552E7CFD9FF12009E
:1026B000120012001200120020EF15F012001A0E84
:1026C000E66E010EE66E79EC0EF0E552E552120070
:1026D0006D840201080EF06F070EF16FF007000E17
:0C26E000F15BF051F111FAE16D94120071
:0426EC00D9CFE6FF5D
:1026F000E1CFD9FF020EE126DE6ADD6AFA0EDBCFFA
:10270000E9FFFB0EDBCFEAFFEF6AFE0EDBCF10F036
:10271000610EE76E1018E8AE02D0E73402D0E75041
:10272000105C1EE3FE0EDBCF11F07A0EE76E11187F
:10273000E8AE02D0113403D0E750D880115410E332
:10274000FE0EDB50A30FE66EFC0EDBCFE9FFFD0EA5
:10275000DBCFEAFFE552E750EF6E010EE4D0E3D0A5
:10276000FE0EDBCF10F0410EE76E1018E8AE02D07F
:10277000E73402D0E750105C26E3FE0EDBCF11F009
:102780005A0EE76E1118E8AE02D0113403D0E750AC
:10279000D880115418E3FA0EDBCFE9FFFB0EDBCF34
:1027A000EAFF010EEF6EFE0EDB50C30FE66EFC0E6D
:1027B000DBCFE9FFFD0EDBCFEAFFE552E750EF6E1E
:1027C000010EB1D0B0D0FE0EDBCF10F0310EE76EAF
:1027D0001018E8AE02D0E73402D0E750105C1EE3D8
:1027E000FE0EDBCF11F0390EE76E1118E8AE02D005
:1027F000113403D0E750D880115410E3FE0EDB50A3
:10280000ED0FE66EFC0EDBCFE9FFFD0EDBCFEAFF3E
:10281000E552E750EF6E010E86D085D0FE0EDB50FC
:1028200020080BE1FC0EDBCFE9FFFD0EDBCFEAFF5A
:102830002C0EEF6E010E77D076D0DE6ADD6ADECF29
:1028400010F0DDCF11F0D890115004E6240E105C8A
:10285000000E11585EE2DECFE9FFDDCFEAFF030E86
:10286000EA02F3CFEAFFE902F3CFE9FFF450EA26E8
:10287000600EE926000EEA22EFCF10F0FE0EDB50CC
:10288000105C42E1DECFE9FFDDCFEAFF030EEA0292
:10289000F3CFEAFFE902F3CFE9FFF450EA26600E36
:1028A000E926000EEA22010EE926000EEA22EF5088
:1028B000E66EFC0EDBCFE9FFFD0EDBCFEAFFE55253
:1028C000E750EF6EDECFE9FFDDCFEAFF030EEA024D
:1028D000F3CFEAFFE902F3CFE9FFF450EA26600EF6
:1028E000E926000EEA22020EE926000EEA22EF5047
:1028F000E66EFA0EDBCFE9FFFB0EDBCFEAFFE55217
:10290000E750EF6E010E0FD0DF2A010E01E3DB2A44
:1029100096D7FC0EDBCFE9FFFD0EDBCFEAFF1D0EE5
:10292000EF6E000E00D0106E020EE15C02E2E16A72
:0E293000E552E16E1050E552E7CFD9FF1200DC
:02293E00120184
:10294000100100000008D8040F000300010200017C
:1029500009022200010100C0320904000001030045
:1029600002000921110100012273000705810309FA
:10297000000A040309042003480061007200640097
:102980006C007900200053006F006600740077002F
:102990006100720065002E03480075006D00610043
:1029A0006E00200049006E00740065007200660031
:1029B0006100630065002000440065007600690046
:1029C0006300650005010902A101854D0901A1000F
:1029D00005091901290315002501950375018102D7
:1029E0009501750581010501093009311581257FA2
:1029F000750895028106C0C00906A101854B05072F
:102A000019E029E715002501750195088102950156
:102A100075088101950575010508190129059102BF
:102A20009501750391019506750815002565050743
:0F2A3000190029658100C050297229762996293D
:102A4000040110511F0B010801E06DD0145101E089
:102A50006AD0060E115D28E11351230A21E0010A14
:102A600011E0030A01E020D00001CD050AE10001D8
:102A7000620EDD6F290EDE6F090EE06FE16BC00E96
:102A8000DF6F12D00001CD050AE10001C40EDD6F39
:102A9000290EDE6F730EE06FE16BC00EDF6F04D0A6
:102AA0000001800EDF6F00D004011051600BE8427E
:102AB000E842E842E842E842010801E034D011511E
:102AC0000B0A2BE0080A1EE0090A16E0080A09E0D2
:102AD0000B0A05E0080A01E026D026D824D025D824
:102AE00022D00001FC0EDD6F020EDE6F010EE06FE2
:102AF000E16BC10EDF6F17D00001800EDF6F13C4D2
:102B0000FCF211D00001FD0EDD6F020EDE6F010E32
:102B1000E06FE16B810EDF6F06D00001800EDF6F8A
:0E2B200012C4FDF200D01200120012001200CA
:022B2E00EA0EAD
:102B3000F66E100EF76E000EF86E02010900F550E9
:102B4000F76F0900F550F86F03E1F76701D03DD04A
:102B50000900F550F26F0900F550F36F0900F550C8
:102B6000F46F09000900F550E96E0900F550EA6EAE
:102B7000090009000900F550F56F0900F550F66FDE
:102B800009000900F6CFF9F2F7CFFAF2F8CFFBF21D
:102B9000F2C2F6FFF3C2F7FFF4C2F8FF0201F553E9
:102BA00002E1F65307E00900F550EE6EF507F8E292
:102BB000F607F9D7F9C2F6FFFAC2F7FFFBC2F8FF32
:0C2BC0000201F707000EF85BBFD71200FF
:042BCC00006A0EAEDF
:102BD000EFEF15F00D6C0E1EE86A0E22001E09AE16
:102BE000F7EF15F0086C091EE86A0922001E26ECB2
:102BF00016F009BE07EF16F000AE000C086C091EB7
:102C0000E86A0922046C051EE86A0522000C00BE71
:082C1000FEEF15F00188FF0C36
:082C1800FE0EE3CFE9FFFF0E01
:102C2000E3CFEAFFE9CFF3FFEACFF4FFFB0EE35077
:102C300003E1FC0EE35009E0FB0EE30602E2FC0EAA
:0C2C4000E306FD0EE350EE6EF1D712002B
:042C4C00056A046AA7
:102C5000100EE76ED89008360936043605360D504A
:102C6000045C0E50055805E30D50045E0E50055AE5
:082C7000082AE72EF0D712003C
:082C7800000EF36E00EE00F007
:102C8000080E01D81200EA6002D0EE6AFCD7F350B9
:082C9000E9601200EE6AFCD7B6
:082C980013EE00F023EE00F042
:102CA000F86A019C97EC15F05FEC16F083EC0FF0DE
:042CB000FBD712003C
:0A2CB400F6F6F6000A0A0A0014EC16
:022CBE00120002
:102CC0000000000000000000000000000000000004
:052CD0000000000000FF
:0B2CD5000A00000D28001B2900211E32
:102CE000012234012320012421012522012624016F
:102CF0002826012927012A25012B2E012C36002701
:102D000034002D2D002E37002F38003027003A33A5
:102D1000013B33003C36013D2E003E37013F380178
:102D2000401F015B2F005C31005D30005E23015FBE
:102D30002D017B2F017C31017D30017E35017F2A01
:012D40000092
:020000040030CA
:0100000029D6
:010001000EF0
:0100020039C4
:010003001EDE
:0100050001F9
:010006008178
:010008000FE8
:01000900C036
:01000A000FE6
:01000B00E014
:01000C000FE4
:01000D0040B2
:0200000400F00A
:100000000200000000000000000005000007484951
:05001000444163686536
:00000001FF
